S01200006C65645F626C696E6B792E73726563F5
S113000078E4FF1F110700000D0700000D07000032
S113001000000000000000000000000000000000DC
S11300200000000000000000000000000D070000B8
S113003000000000000000000D0700001104000093
S1130040110700001107000011070000110700004C
S11300500000000011070000110700001107000054
S1130060110700001107000011070000110700002C
S1130070110700001107000011070000110700001C
S1130080110700001107000011070000110700000C
S11300901107000011070000110700000000000014
S11300A011070000110700001107000011070000EC
S11300B011070000000000001107000011070000F4
S1130400FFFFFFFFFFFFFFFFFFFFFFFFFEFFFFFFF9
S1130410034B1A68002A02D01A68013A1A6070471E
S113042070E0FF1F024A10601368002BFCD1704774
S113043070E0FF1F012310B582B001AC238000F0EF
S11304404BF922001D21074800F02CF8FA248021E2
S1130450054A0448A400890514601368002BFCD1E4
S1130460C160F9E700F10F4070E0FF1F5E2110B595
S1130470024B034A034800F0A7FAC046B434000014
S113048014350000D8340000034AB32110B5034BDF
S11304900348143200F098FA14350000E8340000E0
S11304A0D834000010B5002A16D01378002B09D0D8
S11304B05378002B0CD101338B4083604269134382
S11304C0436110BD01228A40436993434361F8E7C5
S11304D001238B404360F1E7034A6521034B044841
S11304E0283200F071FAC046143500000C350000C3
S11304F0D83400000E4B10B598420DD00D4B9842E5
S11305000ED00D4B98420DD00C4B98420CD00C4B96
S113051098420BD0FFF7AAFF0A4AA023D05810BD77
S1130520094AFAE7094AF8E7094AF6E7094AF4E703
S113053000F00F4040F00F4080F00F40C0F00F403B
S113054000F10F400090044000A0044000B00440BB
S113055000C0044000D004400E4B10B598420DD0AA
S11305600D4B98420ED00D4B98420DD00C4B984237
S11305700CD00C4B98420BD0FFF778FF0A4AA0230B
S1130580D15010BD094AFAE7094AF8E7094AF6E7E3
S1130590094AF4E700F00F4040F00F4080F00F40AC
S11305A0C0F00F4000F10F400090044000A0044050
S11305B000B0044000C0044000D0044010B5002A3C
S11305C018D01378002B0BD05378002B0ED10133A5
S11305D08B40836001238B4042691343436110BD08
S11305E001228A40436993434361F8E701238B4026
S11305F04360EFE7034AC421034B0448383200F058
S1130600E3F9C046143500000C350000D83400006E
S1130610F82310B51B0698420DD00D4B98420ED00E
S11306200C4B98420DD00C4B98420CD00B4B98427B
S11306300BD0FFF729FF0A4AA023D05810BD094A5E
S1130640FAE7094AF8E7094AF6E7094AF4E7C0462F
S1130650400000F8800000F8C00000F8000100F835
S11306600090044000A0044000B0044000C00440D6
S113067000D00440F82310B51B0698420DD00D4B52
S113068098420ED00C4B98420DD00C4B98420CD093
S11306900B4B98420BD0FFF7F7FE0A4AA023D15028
S11306A010BD094AFAE7094AF8E7094AF6E7094A90
S11306B0F4E7C046400000F8800000F8C00000F8ED
S11306C0000100F80090044000A0044000B0044081
S11306D000C0044000D004408023074A9B011168F5
S11306E00B43064913604B6F054A1A4080235B0095
S11306F013434B677047C0463880044000D0044021
S1130700FFF8FFFF10B5FFF7E7FF10BDFEE7C04697
S11307101049114B10B599420BD2013B5A1A0023D0
S1130720920801320D489200C458CC5004339342CD
S1130730FAD10B4B0B4A934209D20321013AD21A44
S11307408A43191D5218002102C39342FCD1FFF7BA
S113075071FE10BD00E0FF1F64E0FF1F543600006F
S113076064E0FF1F78E0FF1F012051E21EFF2F010C
S11307703600003A010050E12200009A020011E123
S11307802300000A0E0211E38111A0010830A00326
S11307900130A013010251E3000051310112A031D4
S11307A00332A031FAFFFF3A020151E30000513154
S11307B08110A0318330A031FAFFFF3A0020A0E37A
S11307C0010050E10100402003208221A10050E1FA
S11307D0A1004020A3208221210150E121014020D9
S11307E023218221A10150E1A1014020A3218221E2
S11307F0000050E32332B0112112A011EFFFFF1AC1
S11308000200A0E11EFF2FE10100A0030000A013DD
S11308101EFF2FE1010851E32118A0211020A0237D
S11308200020A033010C51E32114A02108208222CE
S1130830100051E32112A02104208222040051E37C
S113084003208282A12082903002A0E11EFF2FE1CA
S1130850000050E30000E013590000EA000051E3F7
S1130860FAFFFF0A03402DE9BEFFFFEB0640BDE897
S1130870920003E0031041E01EFF2FE1000051E36A
S11308804300000A01C020E000106142012051E24F
S11308902700000A0030B0E100306042010053E15B
S11308A02600009A020011E12800000A0E0211E35A
S11308B08111A0010820A0030120A013010251E32B
S11308C0030051310112A0310222A031FAFFFF3A94
S11308D0020151E3030051318110A0318220A03183
S11308E0FAFFFF3A0000A0E3010053E10130432086
S11308F002008021A10053E1A1304320A200802105
S1130900210153E12131432022018021A10153E13E
S1130910A1314320A2018021000053E32222B0111F
S11309202112A011EFFFFF1A00005CE300006042F7
S11309301EFF2FE100003CE1000060421EFF2FE19A
S11309400000A033CC0FA001010080031EFF2FE1A3
S1130950010851E32118A0211020A0230020A03376
S1130960010C51E32114A02108208222100051E33C
S11309702112A02104208222040051E30320828258
S1130980A120829000005CE33302A0E100006042F9
S11309901EFF2FE1000050E30201E0C30201A0B3F7
S11309A0070000EA000051E3F9FFFF0A03402DE9C4
S11309B0B3FFFFEB0640BDE8920003E0031041E003
S11309C01EFF2FE11EFF2FE138C09FE500409CE58C
S11309D000C052E20320A0E12C309F0504E02DE585
S11309E003C0A00100E0A0E120309F1514D04DE227
S11309F00C0094E50A108DE80E30A0E110109FE57C
S1130A00140000EBED0300EB00E0FF1F683500006D
S1130A105C3500006C3500000230A0E110402DE987
S1130A200020A0E3E7FFFFEB0C002DE904E02DE537
S1130A300CD04DE214C08DE20C30A0E110209DE5F5
S1130A4004C08DE5980000EB0CD08DE204E09DE439
S1130A5008D08DE21EFF2FE10E002DE904E02DE504
S1130A602C209FE508D04DE210C08DE20010A0E1DB
S1130A700C30A0E1000092E50C209DE504C08DE55A
S1130A80890000EB08D08DE204E09DE40CD08DE2F7
S1130A901EFF2FE100E0FF1F030010E33F00000AE8
S1130AA0000052E3012042E21EFF2F01FFC001E2D9
S1130AB00030A0E1020000EA012042E2010072E3FA
S1130AC01EFF2F0101C0C3E4030013E3F9FFFF1A63
S1130AD0030052E32700009A30402DE9FFE001E2D1
S1130AE00EE48EE10F0052E30EE88EE12D00009A31
S1130AF0104042E22442A0E1205083E2045285E007
S1130B0010C083E210E00CE50CE00CE508E00CE515
S1130B1004E00CE510C08CE205005CE1F8FFFF1A6C
S1130B2001C084E20C0012E30CC283E00F2002E255
S1130B301800000A043042E20330C3E3043083E2C5
S1130B4003308CE004E08CE40C0053E1FCFFFF1A5A
S1130B50032002E2000052E30400000AFF1001E255
S1130B60022083E00110C3E4030052E1FCFFFF1AFA
S1130B703040BDE81EFF2FE1000052E31EFF2F01AD
S1130B80FF1001E2022083E00110C3E4030052E1FC
S1130B90FCFFFF1A1EFF2FE10C30A0E1ECFFFFEA7F
S1130BA00030A0E1C9FFFFEA03C0A0E1E0FFFFEAD3
S1130BB0083092E570402DE9015043E2000055E30E
S1130BC002C0A0E1085082E501E0A0E1070000AA0C
S1130BD0184092E5040055E10030A0B30130A0A311
S1130BE00A0051E30030A003000053E30600000AAA
S1130BF000309CE5012083E200208CE500E0C3E5A1
S1130C000E00A0E17040BDE81EFF2FE1AC0200EB36
S1130C107040BDE81EFF2FE1000053E31300000AFB
S1130C20F0412DE9035082E00170A0E10060A0E1F1
S1130C30015045E2014042E2010000EA050054E1AE
S1130C400700000A0720A0E10110F4E50600A0E176
S1130C50D6FFFFEB010070E3F7FFFF1AF041BDE898
S1130C601EFF2FE10000A0E3F041BDE81EFF2FE1CD
S1130C700000A0E31EFF2FE1083092E5000053E3DB
S1130C8010402DE9043082050240A0E10300A001D8
S1130C900300000AED0400EB0030A0E3083084E513
S1130CA0043084E51040BDE81EFF2FE1F04F2DE92C
S1130CB000C050E27CD04DE20CC08DE501B0A0E153
S1130CC00280A0E10340A0E10200000A18309CE584
S1130CD0000053E38900000AB4339FE503005BE19D
S1130CE08A00000AAC339FE503005BE19300000A2D
S1130CF0A4339FE503005BE10C309D050CB0930524
S1130D00BC30DBE1080013E38500000A10309BE5EA
S1130D10000053E38200000A3030A0E33230CDE516
S1130D200030D8E50070A0E32020A0E3250053E3C1
S1130D300000531314408DE52C708DE53120CDE572
S1130D4058639FE56300000A0850A0E1000000EA30
S1130D500450A0E10130D5E5000053E3250053130E
S1130D60014085E2F9FFFF1A08A054E0A000001A30
S1130D70000053E35A00000A0030E0E3014084E23B
S1130D8018708DE524708DE520708DE55B70CDE5E0
S1130D9070708DE51C308DE50180A0E3040000EA4D
S1130DA00540A0E118309DE5060040E0180083E10D
S1130DB018008DE50450A0E10520A0E30110D5E45E
S1130DC00600A0E17D0600EB000050E305A0A0E1D1
S1130DD0F2FFFF1A18309DE5100013E32020A01342
S1130DE05B20CD15080013E32B20A0130010D4E5DD
S1130DF05B20CD152A0051E35300001A14209DE511
S1130E00001092E5000051E3001061B2042082E278
S1130E10023083B324108DA524108DB514208DE5E4
S1130E2018308DB50110D4E5025084E22E0051E350
S1130E305800000A0320A0E364029FE55F0600EB6C
S1130E40000050E34020A0130580A0010A50A00137
S1130E504C129F1518309D1501004010120083118B
S1130E600030D5E518008D150620A0E30310A0E19D
S1130E7030029FE5018085123030CDE54F0600EB4E
S1130E80000050E36600000A1C329FE5000053E3B3
S1130E905100000A14308DE200308DE50B20A0E1F2
S1130EA008329FE518108DE20C009DE500F020E368
S1130EB00090A0E1010079E30900000A2C309DE5CF
S1130EC0093083E02C308DE50030D8E5250053E36C
S1130ED0000053139BFFFF1A000053E30840A0E1F6
S1130EE0A4FFFF1ABC30DBE1400013E31100001A39
S1130EF02C009DE57CD08DE2F04FBDE81EFF2FE174
S1130F00380400EB88319FE503005BE174FFFF1AAE
S1130F100C309DE504B093E5BC30DBE1080013E33D
S1130F2079FFFF1A0B10A0E10C009DE53C0200EBD9
S1130F30000050E377FFFF0A0000E0E3ECFFFFEA64
S1130F400C309DE508B093E56CFFFFEA302041E2E8
S1130F50090052E304A0A081B3FFFF8A24309DE579
S1130F60010000EA0540A0E1015085E20010D5E54A
S1130F70033183E0833082E0302041E2090052E310
S1130F8005A0A0E1F6FFFF9A2E0051E324308DE581
S1130F90025084E2A6FFFF1A0110DAE52A0051E3A9
S1130FA02800001A14309DE5002093E5043083E204
S1130FB0000052E314308DE502308AE20210DAE5D3
S1130FC003508AE21C208DE503A0A0A10020E0B319
S1130FD003A0A0B11C208DB595FFFFEA14309DE558
S1130FE0073083E20730C3E3083083E214308DE531
S1130FF0B1FFFFEA0820A0E10A30A0E10B10A0E154
S11310000C009DE503FFFFEB010070E3B4FFFF0A52
S11310102C309DE50AA083E02CA08DE50130D5E5B8
S113102052FFFFEA14308DE200308DE50B20A0E181
S113103078309FE518108DE20C009DE5980000EBD8
S11310400090A0E19AFFFFEA302041E2090052E358
S113105005A0A0811C708DE50150858274FFFF8A74
S11310600030A0E3000000EA0A50A0E10110D5E539
S1131070033183E0833082E0302041E2090052E30F
S113108001A085E2F7FFFF9A025085E21C308DE54E
S113109067FFFFEA1C360000FC350000DC35000069
S11310A0A0350000A8350000AC35000000000000A9
S11310B0180C000010C09FE50230A0E10120A0E15F
S11310C00010A0E100009CE5F7FEFFEA00E0FF1F2E
S11310D0F0472DE90140A0E1101091E508C094E526
S11310E00C0051E10C10A0B10290A0E1001082E5C7
S11310F04320D4E5000052E3011081120010891549
S11311000370A0E1003094E5200013E30060A0E147
S113111020809DE55A00000A002099E5022082E221
S1131120002089E5003094E5060013E30310A0E1F4
S11311301900001A0C1094E5022041E0000052E36B
S11311400310A0D1140000DA0050A0E319A084E237
S1131150040000EA0C3094E5002099E5023043E0F5
S1131160050053E10B0000DA0130A0E30A20A0E1FE
S11311700710A0E10600A0E10FE0A0E118FF2FE1B5
S1131180010070E3015085E2F1FFFF1A0000E0E383
S1131190F047BDE81EFF2FE1001094E54330D4E58D
S11311A0003093E20130A013200011E30700000A8D
S11311B03010A0E3032084E04310C2E5012083E261
S11311C04510D4E5022084E04310C2E5023083E2F6
S11311D0432084E20710A0E10600A0E10FE0A0E1B3
S11311E018FF2FE1010070E3E7FFFF0A003094E5E8
S11311F0063003E2043053E20130A013002099E5E5
S11312000C9094E5029049E0A93F93E1102094E505
S1131210083094E51300000A020053E1150000DAD7
S11312200090A0E3023043E0039089E00050A0E383
S11312301A4084E2010000EA090055E10D0000AA09
S11312400130A0E30420A0E10710A0E10600A0E122
S11312500FE0A0E118FF2FE1010070E3015085E2E7
S1131260F4FFFF1AC8FFFFEA020053E1ECFFFFCAD4
S1131270000059E3ECFFFF1A0000A0E3F047BDE8CB
S11312801EFF2FE1060013E30300000A4330D4E5F8
S1131290003093E20130A013CCFFFFEA002099E56F
S11312A0A3FFFFEAF04F2DE90140A0E11810D1E5BA
S11312B01CD04DE20380A0E16E0051E3433084E290
S11312C00C308DE50060A0E10270A0E140309DE5A6
S11312D0AB00000A5700009A730051E3D300000AE0
S11312E06300009A750051E3DE00000A780051E3C0
S11312F0EA00001A7810A0E3002094E54510C4E544
S1131300B4B39FE5001093E5800012E3045091E428
S1131310AB00000A001083E510A0A0E3010012E373
S11313202020821300208415000055E3003094052A
S11313302030C303003084050020A0E34320C4E52B
S1131340042094E5000052E3082084E5A60000BAD6
S1131350001094E5000055E30410C1E3001084E597
S11313606C00001A000052E343908402A000001AAB
S113137008005AE37300000A0C309DE509A043E01D
S113138010A084E500808DE50730A0E114208DE2F3
S11313900410A0E10600A0E14CFFFFEB010070E3A4
S11313A02000000A0920A0E1103094E50710A0E114
S11313B00600A0E10FE0A0E118FF2FE1010070E3B7
S11313C01800000A003094E5020013E314009DE5C0
S11313D00C3094E56500000A002043E0000052E36D
S11313E0620000DA0050A0E3199084E2040000EAED
S11313F00C3094E514009DE5002043E0050052E123
S11314005A0000DA0130A0E30920A0E10710A0E1AE
S11314100600A0E10FE0A0E118FF2FE1010070E356
S1131420015085E2F1FFFF1A0000E0E31CD08DE2D9
S1131430F04FBDE81EFF2FE1630051E37000000A86
S11314401600008A000051E35900000A580051E3D5
S11314509200001A4510C4E5002094E5001093E5BD
S1131460800012E354B29FE5045091E45400000A52
S1131470A7FFFFEA6F0051E37A00000A700051E30E
S11314808600001A7810A0E3002094E5202082E36F
S1131490002084E54510C4E51CB29FE598FFFFEAEF
S11314A0640051E30100000A690051E37B00001A63
S11314B0002094E5001093E5800012E3040081E22B
S11314C04500001A400012E3F050D11100109105BC
S11314D00510A0110150A001000083150000830530
S11314E0000051E30AA0A0A3D0B19FA593FFFFAAD7
S11314F02D10A0E30AA0A0E3043094E5000053E318
S11315000420C2A34310C4E5083084E5002084A568
S1131510A8B19FE5005065E2439084E2000000EA30
S11315200050A0E10A10A0E10500A0E1CAFCFFEB15
S11315300120DBE70A0055E1012069E5F7FFFF2AF6
S113154008005AE38BFFFF1A003094E5010013E30F
S113155088FFFF0A103094E5042094E5030052E16B
S11315603030A0D3013049D5019049D281FFFFEA40
S1131570030050E10300A0B11CD08DE2F04FBDE8A0
S11315801EFF2FE1002093E5001094E504C082E2E1
S1131590140094E500C083E5800011E3003092E577
S11315A00200001A400011E3B000C3110000001A49
S11315B0000083E50030A0E3439084E2103084E52A
S11315C06FFFFFEA400012E351FFFF0A0558A0E154
S11315D02558A0E1001083E54EFFFFEA001091E5D5
S11315E0000083E50150A0E1BCFFFFEA000055E3E1
S11315F0C8FFFF1A0020DBE5429084E24220C4E5E4
S11316005AFFFFEA0110A0E3002093E5040082E200
S1131610002092E5000083E54220C4E5101084E533
S1131620429084E20030A0E34330C4E554FFFFEA73
S1131630002093E5041082E2001083E5009092E517
S11316400010A0E3042094E50900A0E15B0400EB92
S1131650000050E304309405093040100430841530
S1131660103084E5EEFFFFEA000094E5002093E5E6
S1131670800010E304C082E200C083E50100001A88
S1131680400010E30A00001A005092E56F0051E395
S113169008A0A0030AA0A01320B09FE525FFFFEA3D
S11316A00130A0E34210C4E5103084E5429084E2A6
S11316B0DBFFFFEAB050D2E1F3FFFFEAC8350000D8
S11316C0B4350000F0412DE9006050E20150A0E182
S11316D00240A0E10200000A183096E5000053E33E
S11316E03400000A14319FE5030054E104409605D8
S11316F00600000A08319FE5030054E108409605FE
S11317000200000AFC309FE5030054E10C409605FA
S1131710BC20D4E1183094E5080012E3083084E5D5
S11317201C00000A103094E5000053E31900000A7D
S1131730002094E5141094E5033042E0FF5005E2E4
S1131740030051E10570A0E1013083C2230000DAF7
S1131750080094E5011082E2010040E2080084E5FB
S1131760001084E50050C2E5142094E5030052E122
S11317701200000ABC30D4E10A0055E30050A01363
S113178001500302000055E30C00001A0700A0E119
S1131790F041BDE81EFF2FE10410A0E10600A0E126
S11317A01F0000EB000050E310309405DFFFFF0A38
S11317B00070E0E3F4FFFFEA0A0200EBC8FFFFEA6F
S11317C00410A0E10600A0E10B0100EB000050E3CF
S11317D0F6FFFF1A0700A0E1F041BDE81EFF2FE16C
S11317E00410A0E10600A0E1030100EB000050E3B7
S11317F0EEFFFF1A0130A0E3002094E5D3FFFFEAD7
S11318001C360000FC350000DC3500000C309FE580
S11318100120A0E10010A0E1000093E5A8FFFFEA89
S113182000E0FF1F84319FE570402DE9005093E5EF
S1131830000055E30060A0E10140A0E10200000ABD
S1131840183095E5000053E32B00000A60319FE552
S1131850030054E1044095050600000A54319FE555
S1131860030054E1084095050200000A48319FE551
S1131870030054E10C409505FC20D4E10238A0E1BA
S11318802338A0E1080013E31E00000A100094E5C9
S1131890000050E32600000A012013E20700001AAA
S11318A0020013E314209405000050E3082084E5AB
S11318B00000A0130900000A7040BDE81EFF2FE1DC
S11318C00020A0E3143094E5000050E3003063E20C
S11318D0183084E5082084E50000A013F5FFFF1A02
S11318E0FC30D4E1800013E340308313BC30C411D6
S11318F00000E0137040BDE81EFF2FE10500A0E1E9
S1131900B80100EBD0FFFFEA100013E32100000A46
S1131910040013E30F00001A100094E5083082E37A
S1131920BC30C4E1000050E30338A0E12338A0E157
S1131930D8FFFF1A0A2D03E2020C52E3D5FFFF0A77
S11319400600A0E10410A0E15C0300EBBC30D4E18C
S1131950100094E5CFFFFFEA341094E5000051E352
S11319600700000A443084E2030051E10200000A47
S11319700600A0E1720400EBFC20D4E10030A0E3F7
S1131980343084E50030A0E3100094E52420C2E361
S1131990090084E8E0FFFFEA0930A0E3402082E385
S11319A0003086E50000E0E3BC20C4E1C1FFFFEAAB
S11319B000E0FF1F1C360000FC350000DC35000091
S11319C010402DE90600A0E3AB0500EB0100A0E305
S11319D0B60600EBBC30D1E1080013E3F0412DE979
S11319E00140A0E10080A0E14100001A042091E53B
S11319F0000052E35E0000DA2C5094E5000055E349
S1131A005E00000A0020A0E3017A13E2006098E57A
S1131A10201094E5002088E55B00001A0130A0E363
S1131A200720A0E10800A0E10FE0A0E115FF2FE1ED
S1131A30010070E35F00000ABC30D4E12C5094E54F
S1131A40201094E5040013E30500000A342094E513
S1131A50043094E5000052E3030040E04030941564
S1131A60030040100020A0E10030A0E30800A0E142
S1131A700FE0A0E115FF2FE1010070E34400001A1C
S1131A80002098E51D1042E2003071E20130A3E02D
S1131A90000052E30130A003160052E30130830337
S1131AA0000053E3FC30D4E15000000A0010A0E32E
S1131AB0010A13E3103094E5041084E5003084E552
S1131AC04700001A341094E5000051E3006088E5F3
S1131AD02A00000A443084E2030051E10800A01106
S1131AE01704001B0000A0E3340084E5F041BDE8C6
S1131AF01EFF2FE1106091E5000056E31F00000A6D
S1131B00030013E30030A013005091E51430910555
S1131B10065045E0000055E3006081E5083081E5AA
S1131B20030000CA150000EA000055E3006086E0E7
S1131B30120000DA0530A0E1287094E50620A0E147
S1131B40201094E50800A0E10FE0A0E117FF2FE1C9
S1131B50000050E3005045E0F2FFFFCABC30D4E17E
S1131B60403083E3BC30C4E10000E0E3F041BDE871
S1131B701EFF2FE1402091E5000052E39DFFFFCAC4
S1131B800000A0E3F041BDE81EFF2FE1540094E5FE
S1131B90ABFFFFEA0020A0E3BC30D4E1010A13E369
S1131BA0103094E5042084E5003084E5C4FFFF0A86
S1131BB0540084E5C2FFFFEA003098E5000053E3D7
S1131BC09CFFFF0A160053E31D005313BC30D411CD
S1131BD040308313006088050700A001BC30C411A5
S1131BE0E7FFFFEA000052E3B5FFFF1AEFFFFFEA49
S1131BF0403083E3BC30C4E1E1FFFFEA103091E5FB
S1131C00000053E32100000A10402DE9000050E3D6
S1131C1008D04DE20040A0E10200000A183090E52F
S1131C20000053E31500000A68309FE5030051E10A
S1131C30041094050600000A5C309FE5030051E19E
S1131C40081094050200000A50309FE5030051E19A
S1131C500C109405FC30D1E1000053E30300001A9A
S1131C600000A0E308D08DE21040BDE81EFF2FE184
S1131C700400A0E108D08DE21040BDE854FFFFEA63
S1131C8004108DE5D70000EB04109DE5E5FFFFEAA5
S1131C900000A0E31EFF2FE11C360000FC3500000D
S1131CA0DC350000001050E220309F150000931531
S1131CB0D1FFFF1A10402DE914309FE514109FE561
S1131CC0000093E5350200EB1040BDE81EFF2FE154
S1131CD000E0FF1F9C350000FC1B00000000A0E397
S1131CE01EFF2FE110402DE908109FE52B0200EBA9
S1131CF01040BDE81EFF2FE1FC1B00000000A0E324
S1131D001EFF2FE1012041E270402DE9824082E074
S1131D10042182E08241A0E10160A0E1741084E228
S1131D20CF0300EB005050E20600000A0010A0E3CD
S1131D300C0085E2046085E5682084E2001085E5F6
S1131D40080085E553FBFFEB0500A0E17040BDE80A
S1131D501EFF2FE1E4309FE570402DE9005093E52C
S1131D60183095E5000053E30060A0E12600000A66
S1131D70485085E2043095E5013053E2084095E58A
S1131D800400005A1B0000EA013043E2010073E33F
S1131D90684084E21700000AFC20D4E1000052E30A
S1131DA0F8FFFF1A0050A0E394309FE5645084E5E7
S1131DB0005084E5045084E5085084E5105084E51F
S1131DC0145084E5185084E50510A0E10C3084E536
S1131DD00820A0E35C0084E22EFBFFEB345084E592
S1131DE0385084E5485084E54C5084E50400A0E173
S1131DF07040BDE81EFF2FE1004095E5000054E36C
S1131E000400000A0450A0E1D9FFFFEA0500A0E1A4
S1131E100C0000EBD5FFFFEA0410A0E30600A0E1EC
S1131E20B7FFFFEB000050E30040A0E1000085E5B0
S1131E30F3FFFF1A0C30A0E3003086E5EAFFFFEA67
S1131E409C3500000100FFFFF84F2DE90030A0E3AE
S1131E504C219FE5001092E5010050E1483080E5F7
S1131E604C3080E5503080E50130A00334219FE5FB
S1131E7018308005282080E50050A0E1B4FFFFEB76
S1131E80040085E50500A0E1B1FFFFEB080085E54E
S1131E900500A0E10040A0E3ADFFFFEB0430A0E3A8
S1131EA0046095E50C0085E50410A0E1644086E536
S1131EB0004086E5044086E5084086E5104086E556
S1131EC0144086E5184086E50C3086E55C0086E221
S1131ED00820A0E3EFFAFFEBCCB09FE5087095E58E
S1131EE0C8A09FE5C8909FE5C8809FE5C8309FE5DE
S1131EF024B086E528A086E52C9086E5308086E52A
S1131F00206086E50410A0E10C3087E5644087E595
S1131F10004087E5044087E5084087E5104087E5F1
S1131F20144087E5184087E55C0087E20820A0E3B9
S1131F30D8FAFFEB0C6095E580309FE5207087E5CB
S1131F4024B087E528A087E52C9087E5308087E5D5
S1131F500410A0E10C3086E5644086E5004086E587
S1131F60044086E5084086E5104086E5144086E591
S1131F70184086E55C0086E20820A0E3C5FAFFEB82
S1131F800130A0E3206086E524B086E528A086E53C
S1131F902C9086E5308086E5183085E5F84FBDE85D
S1131FA01EFF2FE19C350000E41C000034310000CA
S1131FB070310000CC310000FC3100000900010048
S1131FC01200020010402DE910309FE510109FE52B
S1131FD0000093E5710100EB1040BDE81EFF2FE106
S1131FE09C350000FC1B0000183090E5000053E312
S1131FF01EFF2F1193FFFFEA1EFF2FE11EFF2FE1AB
S11320001EFF2FE11EFF2FE110402DE910309FE548
S113201010109FE5000093E53F0100EB1040BDE880
S11320201EFF2FE100E0FF1FDC1C000010402DE923
S113203010309FE510109FE5000093E5360100EB9A
S11320401040BDE81EFF2FE100E0FF1FFC1C000054
S1132050083092E5000053E39C00000AF04F2DE99C
S1132060FC30D1E10338A0E1020713E30CD04DE2C8
S11320700140A0E10090A0E10270A0E12388A0E16A
S11320802400000A102091E5000052E32100000A18
S113209002A018E2006097E52900000A0080A0E38E
S11320A00850A0E128B094E5201094E564A49FE5CD
S11320B0000055E31300000A0A0055E10530A03181
S11320C00A30A0210820A0E10900A0E10FE0A0E16E
S11320D01BFF2FE1000050E3750000DA083097E59C
S11320E0003043E0000053E3008088E0005045E006
S11320F0083087E55F00000A000055E328B094E546
S1132100201094E5EBFFFF1A008096E5045096E555
S1132110086086E2E5FFFFEA0410A0E10900A0E1FF
S1132120BFFDFFEB000050E3F800001AFC30D4E1DF
S11321300338A0E12388A0E102A018E2006097E53B
S1132140D5FFFF1A018018E26200001A0850A0E1CE
S113215008A094E5000094E5000055E34100000A5E
S1132160020413E32338A0E19600000A05005AE1B3
S11321700AB0A0E1BC00008A120D13E32200000A99
S1132180101084E2060091E8822082E0A22F82E00F
S113219001B040E001A085E2C220A0E10BA08AE0EA
S11321A002005AE102A0A0910A20A081010B13E3CE
S11321B0C300000A0210A0E10900A0E1A80200EB9C
S11321C0003050E2CD00000A0B20A0E1101094E58D
S11321D004308DE5BD0100EBBC20D4E1122DC2E337
S11321E0802082E3BC20C4E104309DE50B0083E041
S11321F00BB04AE008B084E514A084E505B0A0E182
S113220005A0A0E1103084E5000084E50B20A0E1E6
S11322100810A0E1F40100EB080094E50A0040E096
S113222005A0A0E10050A0E3003094E50BB083E0EA
S1132230080084E500B084E5083097E50A3043E0FF
S1132240000053E30A8088E0083087E50900000AAB
S1132250FC30D4E1000055E308A094E50338A0E184
S1132260000094E5BDFFFF1A008096E5045096E552
S1132270086086E2B7FFFFEA0000A0E30CD08DE21D
S1132280F04FBDE81EFF2FE10520A0E10B10A0E1F7
S1132290D50100EB003094E5053083E0003084E59F
S11322A00410A0E10900A0E153FEFFEB000050E39D
S11322B02800000AFC30D4E10000E0E3403083E36E
S11322C0BC30C4E10CD08DE2F04FBDE81EFF2FE11D
S11322D00000A0E31EFF2FE10A00A0E10AB0A0E184
S11322E00A80A0E1250000EA000050E32C00000A67
S11322F00A30A0E1030058E10830A031141094E53D
S1132300085094E5000094E510C094E5055081E080
S11323100C0050E10020A0930120A083050053E1AC
S11323200020A0D3000052E3D6FFFF1A030051E1BE
S1132330560000CA0130A0E1285094E50B20A0E12A
S1132340201094E50900A0E10FE0A0E115FF2FE1C2
S1132350005050E2D6FFFFDA05A05AE00100A013B6
S11323604400000A083097E5053043E0000053E3D9
S113237005B08BE0058048E0083087E5BDFFFF0A23
S1132380000058E3D7FFFF1A083086E2048013E503
S1132390000058E30360A0E108B013E5083083E2CD
S11323A0F9FFFF0A0820A0E10A10A0E30B00A0E156
S11323B0020100EB000050E34D00000A010080E23E
S11323C00BA040E0C9FFFFEA103094E5000053E1A0
S11323D01200003A14B094E505005BE10F00008A96
S11323E0060175E30500A0310201E0230B10A0E112
S11323F021F9FFEB28A094E59B0003E00820A0E16D
S1132400201094E50900A0E10FE0A0E11AFF2FE1FC
S113241000A050E2A6FFFFDA0A5045E085FFFFEA7C
S113242005005AE105A0A0210810A0E10A20A0E1BE
S11324306D0100EB083094E5002094E50A3043E098
S11324400A2082E0000053E3083084E5002084E59C
S1132450F0FFFF1A0410A0E10900A0E1E6FDFFEB84
S1132460000050E3EBFFFF0A91FFFFEA05A0A0E1A3
S113247005B0A0E164FFFFEA0410A0E10900A0E1B7
S1132480DDFDFFEB000050E3B5FFFF0A88FFFFEA24
S11324900320A0E10B10A0E10350A0E104308DE57E
S11324A0510100EB081094E5002094E504309DE50B
S11324B0031041E0033082E0081084E5003084E535
S11324C0A4FFFFEA0900A0E13C0200EB003050E267
S11324D045FFFF1A101094E50900A0E1980100EBF4
S11324E00C20A0E3FC30D4E1002089E58030C3E374
S11324F070FFFFEA013088E203A0A0E17CFFFFEA5D
S11325000C20A0E3FC30D4E1002089E569FFFFEA58
S11325100000E0E358FFFFEA00FCFF7FF0412DE9F3
S1132520487090E21900000A0180A0E10060A0E375
S1132530045097E5015055E2084097E50D00004A24
S1132540BC30D4E1010053E3015045E20600009A97
S1132550FE30D4E1010073E30300000A0400A0E1AB
S11325600FE0A0E118FF2FE1006086E1010075E3B0
S1132570684084E2F1FFFF1A007097E5000057E31A
S1132580EAFFFF1A0600A0E1F041BDE81EFF2FE1BB
S11325900760A0E10600A0E1F041BDE81EFF2FE1C5
S11325A0F0472DE9486090E21B00000A0180A0E199
S11325B00070A0E10090A0E3045096E5015055E2BC
S11325C0084096E50E00004ABC30D4E1010053E314
S11325D0015045E20700009AFE30D4E1010073E3A4
S11325E00400000A0410A0E10700A0E10FE0A0E14C
S11325F018FF2FE1009089E1010075E3684084E24F
S1132600F0FFFF1A006096E5000056E3E9FFFF1AA9
S11326100900A0E1F047BDE81EFF2FE10690A0E10C
S11326200900A0E1F047BDE81EFF2FE170402DE94D
S11326300140A0E1FE10D1E1000051E358D04DE289
S11326400260A0E10350A0E10F0000BA0D20A0E158
S11326500F0300EB000050E30B0000BA04209DE5DB
S11326600F2A02E2023A42E2002073E20320A2E0CF
S1132670013BA0E3002085E5003086E50000A0E3EF
S113268058D08DE27040BDE81EFF2FE10030A0E37A
S1132690BC20D4E1800012E3003085E54030A01373
S11326A000308615F4FFFF1A013BA0E30000A0E30D
S11326B0003086E558D08DE27040BDE81EFF2FE162
S11326C070402DE9BC20D1E1020012E308D04DE2B4
S11326D00140A0E10700000A0110A0E3472084E2C2
S11326E0141084E5002084E5102084E508D08DE2F0
S11326F07040BDE81EFF2FE104308DE20D20A0E103
S11327000050A0E1C8FFFFEB00109DE50060A0E1D0
S11327100500A0E1520100EB000050E3FC30D4E1DD
S11327200F00000A04209DE58C109FE5000052E391
S113273000209DE5803083E3281085E5BC30C4E1AA
S1132740000084E5100084E5142084E50F00001ADD
S1132750063083E1BC30C4E108D08DE27040BDE8AE
S11327601EFF2FE1020C13E3DFFFFF1A0110A0E3A9
S11327700330C3E3472084E2023083E3BC30C4E186
S1132780141084E5002084E5102084E5D6FFFFEAD8
S11327900500A0E1FE10D4E1CE0200EB000050E3FE
S11327A0BC30D4110330C313013083130338A01198
S11327B0FC30D4014338A011E4FFFFEAE41C00001C
S11327C0030010E370402DE9FF4001E23800000AE5
S11327D0000052E301C042E21E00000A0030D0E5CE
S11327E0040053E11C00000A013080E2050000EA05
S11327F001C05CE21700003A0020D0E5040052E179
S1132800013083E21400000A030013E30300A0E193
S1132810F6FFFF1A03005CE31100008A00005CE38A
S11328202500000A0030D0E5040053E10A00000A44
S11328300CC080E0012080E2030000EA0010D0E533
S1132840040051E1012082E20300000A02005CE17D
S11328500200A0E1F8FFFF1A0000A0E37040BDE809
S11328601EFF2FE100E0A0E154309FE5013403E0B6
S1132870043083E14C609FE54C509FE5033883E1CD
S113288000209EE5032022E0061082E00220C1E140
S1132890050012E10E00A0E104E08EE2E0FFFF1A61
S11328A004C04CE203005CE30E00A0E1F3FFFF8AE6
S11328B0D9FFFFEA02C0A0E1D5FFFFEA0C00A0E1C6
S11328C0E5FFFFEAFFFF0000FFFEFEFE8080808040
S11328D00F0052E33500009A013080E1030013E356
S11328E03E00001AF0412DE9108042E22882A0E166
S11328F0207081E2087287E0103081E210C080E22B
S1132900106013E50C5013E5104013E9103083E216
S1132910070053E110600CE50C500CE510400CE985
S113292010C08CE2F5FFFF1A01C088E20CC2A0E1DE
S11329300C0012E30FE002E20C1081E00E20A00173
S11329400CC080E00D00000A0140A0E104E04EE26A
S11329502EE1A0E10E618CE004304CE2045094E4DA
S11329600450A3E5060053E1FBFFFF1A01E08EE2E9
S11329700EE1A0E10EC08CE00E1081E0032002E223
S1132980000052E3012042E2012082120230811051
S113299001204C120300000A01C0D1E4030051E1FC
S11329A001C0E2E5FBFFFF1AF041BDE81EFF2FE185
S11329B0000052E300C0A0E1012042E21EFF2F010B
S11329C0012082E2023081E001204CE201C0D1E426
S11329D0030051E101C0E2E5FBFFFF1A1EFF2FE1F6
S11329E0012042E200C0A0E1F4FFFFEA010050E14F
S11329F00A00009A023081E0000053E10700009AC7
S1132A00000052E3022080E01EFF2F0101C073E5A5
S1132A10030051E101C062E5FBFFFF1A1EFF2FE135
S1132A200F0052E30B00008A000052E300C0A0E153
S1132A30012042E21EFF2F01012082E2023081E0E8
S1132A4001204CE201C0D1E4030051E101C0E2E500
S1132A50FBFFFF1A1EFF2FE1013080E1030013E3A7
S1132A603400001A70402DE9105042E22552A0E1D2
S1132A70204081E2054284E0103081E210C080E20F
S1132A8010E013E510E00CE50CE013E50CE00CE5B8
S1132A9008E013E508E00CE5103083E214E013E5E8
S1132AA0040053E104E00CE510C08CE2F3FFFF1ACC
S1132AB001C085E20CC2A0E10C0012E30FE002E2C7
S1132AC00C1081E00E20A0010CC080E00D00000A73
S1132AD00140A0E104E04EE22EE1A0E10E618CE0B1
S1132AE004304CE2045094E40450A3E5060053E19E
S1132AF0FBFFFF1A01E08EE20EE1A0E10EC08CE0C4
S1132B000E1081E0032002E2000052E3012042E2C1
S1132B10012082120230811001204C120300000AAD
S1132B2001C0D1E4030051E101C0E2E5FBFFFF1A5B
S1132B307040BDE81EFF2FE1012042E200C0A0E189
S1132B40BCFFFFEA000051E31EFF2F01043011E532
S1132B5070402DE9000053E3044041E2034084B097
S1132B600050A0E1FC0100EBF0309FE500C093E5CC
S1132B7000005CE30500000A04005CE10A00009A1E
S1132B80002094E5021084E001005CE11F00000ACB
S1132B9004C084E50500A0E1004083E5EF0100EBFB
S1132BA07040BDE81EFF2FE103C0A0E104309CE5A6
S1132BB0040053E10020A0830120A093000053E30C
S1132BC00020A003000052E3F6FFFF1A00209CE55A
S1132BD002108CE0040051E11200000A1A00008A7D
S1132BE0002094E5021084E0010053E10A009308F8
S1132BF0022081000C0084080430841504408CE514
S1132C000500A0E1D50100EB7040BDE81EFF2FE1F7
S1132C1000109CE504009CE5022081E0002084E58E
S1132C20040084E5DAFFFFEA0C10A0E1000094E55B
S1132C30002082E0022081E6010053E10A009308AB
S1132C40022081000C008C08ECFFFFEA0C30A0E3AA
S1132C500500A0E1003085E5C00100EBE9FFFFEAD3
S1132C6064E0FF1FF0412DE9035081E20350C5E306
S1132C70085085E20C0055E30C50A033050051E1E7
S1132C800010A0930110A083A53F91E10060A0E192
S1132C900C20A0130000A013002086152900001AA0
S1132CA014719FE5AC0100EB002097E5000052E3AE
S1132CB00A00000A003092E5053053E00400004A9F
S1132CC0380000EA003094E5053053E01F00005A54
S1132CD00420A0E1044092E5000054E3F8FFFF1A49
S1132CE0041097E5000051E32A00000A0510A0E152
S1132CF00600A0E1560000EB010070E31F00000A8B
S1132D00034080E20340C4E3040050E10400000AED
S1132D10001044E00600A0E14D0000EB010070E368
S1132D201600000A005084E50600A0E18B0100EBC8
S1132D300B0084E2043084E20700C0E3032050E087
S1132D400030431002308417F041BDE81EFF2FE12C
S1132D500B0053E30600008A043094E5040052E1BA
S1132D6004308215EFFFFF1A003087E5EDFFFFEA1C
S1132D700240A0E1003084E50350A4E7E9FFFFEA44
S1132D800C30A0E30600A0E1003086E5730100EBFF
S1132D900000A0E3EBFFFFEA0600A0E12C0000EB3B
S1132DA0040087E5D0FFFFEA0B0053E3EFFFFF8A3F
S1132DB0043092E50240A0E1EAFFFFEA64E0FF1F6D
S1132DC0F0412DE9006051E20240A0E11C00000A3C
S1132DD0000052E31500000A0070A0E1600100EB5E
S1132DE0040050E10650A0210200003A0500A0E1D1
S1132DF0F041BDE81EFF2FE10410A0E10700A0E1AF
S1132E0097FFFFEB005050E2F7FFFF0A0420A0E118
S1132E100610A0E1ADFEFFEB0700A0E10610A0E163
S1132E2047FFFFEB0500A0E1F041BDE81EFF2FE1E5
S1132E300450A0E142FFFFEB0500A0E1F041BDE832
S1132E401EFF2FE10210A0E185FFFFEB0050A0E17F
S1132E50E5FFFFEA0030A0E370402DE930409FE534
S1132E600050A0E10100A0E1003084E57E0100EB08
S1132E70010070E30100000A7040BDE81EFF2FE16D
S1132E80003094E5000053E3003085157040BDE840
S1132E901EFF2FE174E0FF1F10402DE98010A0E316
S1132EA00040A0E16EFFFFEB000050E3440084E526
S1132EB00800000A0020A0E3043040E27C0080E225
S1132EC00420A3E5000053E1FCFFFF1A0000A0E387
S1132ED01040BDE81EFF2FE10000E0E3FBFFFFEA26
S1132EE0443090E5000053E30100000A0000A0E331
S1132EF01EFF2FE1E7FFFFEA1F0051E370402DE9B9
S1132F001620A0830050A0E10000E0830020858506
S1132F100600008A443095E5000053E30260A0E116
S1132F200140A0E10300000A040193E7046183E780
S1132F307040BDE81EFF2FE1D6FFFFEB000050E319
S1132F400000E013F9FFFF1A443095E5F5FFFFEAAE
S1132F501F0051E370402DE91630A0830050A0E11A
S1132F600000E083003085851400008A442095E544
S1132F70000052E30140A0E11200000A013192E78F
S1132F80000053E30F00000A010053E30000A00314
S1132F900A00000A010073E31630A0030100A00335
S1132FA0003085050500000A0050A0E30100A0E1FF
S1132FB0015182E70FE0A0E113FF2FE10500A0E13A
S1132FC07040BDE81EFF2FE10500A0E1540000EBB6
S1132FD00420A0E10010A0E10500A0E13F0000EB07
S1132FE07040BDE81EFF2FE11F0051E32000008A5E
S1132FF0443090E5000053E370402DE90050A0E117
S11330000140A0E11100000A042193E7000052E30B
S1133010043183E00100A0030A00000A010072E306
S11330200F00000A010052E30300A0030500000A98
S11330300050A0E30400A0E1005083E50FE0A0E10C
S113304012FF2FE10500A0E17040BDE81EFF2FE153
S113305090FFFFEB000050E30300001A443095E5B5
S1133060E8FFFFEA0200A0E3F6FFFFEA0000E0E366
S1133070F4FFFFEA0000E0E31EFF2FE108309FE5C4
S11330800010A0E1000093E5B0FFFFEA00E0FF1F9D
S11330900C309FE50120A0E10010A0E1000093E5C1
S11330A094FFFFEA00E0FF1F18309FE5000093E55E
S11330B0443090E5000053E30100000A0000A0E35F
S11330C01EFF2FE173FFFFEA00E0FF1F08309FE5BA
S11330D00010A0E1000093E5C2FFFFEA00E0FF1F3B
S11330E001C0A0E10030A0E370402DE92C409FE531
S11330F00050A0E10210A0E10C00A0E1003084E542
S1133100C70000EB010070E30200001A003094E5F0
S1133110000053E3003085157040BDE81EFF2FE129
S113312074E0FF1F10402DE9B10000EB1040BDE832
S11331301EFF2FE110402DE90140A0E1FE10D1E176
S11331408D0000EB000050E3543094A5BC30D4B1A2
S1133150003083A0013AC3B3543084A5BC30C4B159
S11331601040BDE81EFF2FE10000A0E31EFF2FE189
S1133170FCC0D1E1010C1CE3F0412DE90140A0E1C8
S11331800260A0E10370A0E1FE10D1E10050A0E1D3
S11331900700001A01CACCE3BCC0C4E10730A0E1B7
S11331A00620A0E10500A0E1180000EBF041BDE815
S11331B01EFF2FE10230A0E30020A0E3540000EB47
S11331C0FCC0D4E1FE10D4E1F1FFFFEA10402DE988
S11331D00140A0E1FE10D1E14D0000EBBC30D4E190
S11331E0010070E3013AC303013A831354008415C8
S11331F0BC30C4E11040BDE81EFF2FE110402DE9B2
S1133200FE10D1E1130000EB1040BDE81EFF2FE1DA
S113321070402DE901E0A0E100C0A0E330409FE54B
S11332200210A0E10050A0E10320A0E10E00A0E103
S113323000C084E5970000EB010070E30200001A6F
S1133240003094E5000053E3003085157040BDE87C
S11332501EFF2FE174E0FF1F0030A0E370402DE952
S113326028409FE50050A0E10100A0E1003084E582
S1133270530000EB010070E30200001A003094E5F3
S1133280000053E3003085157040BDE81EFF2FE1B8
S113329074E0FF1F01C0A0E10030A0E370402DE9FD
S11332A02C409FE50050A0E10210A0E10C00A0E139
S11332B0003084E5480000EB010070E30200001ACE
S11332C0003094E5000053E3003085157040BDE8FC
S11332D01EFF2FE174E0FF1F0030A0E370402DE9D2
S11332E028409FE50050A0E10100A0E1003084E502
S11332F0450000EB010070E30200001A003094E581
S1133300000053E3003085157040BDE81EFF2FE137
S113331074E0FF1F70402DE901E0A0E100C0A0E3CC
S113332030409FE50210A0E10050A0E10320A0E19D
S11333300E00A0E100C084E53F0000EB010070E353
S11333400200001A003094E5000053E300308515B4
S11333507040BDE81EFF2FE174E0FF1F1EFF2FE148
S11333601EFF2FE1040011E5000050E3040040E2D9
S1133370003091B7030080B01EFF2FE170402DE9AB
S113338001E0A0E100C0A0E330409FE50210A0E10D
S11333900050A0E10320A0E10E00A0E100C084E5FC
S11333A02B0000EB010070E30200001A003094E5EA
S11333B0000053E3003085157040BDE81EFF2FE187
S11333C074E0FF1F5820A0E308309FE50000E0E30D
S11333D0002083E51EFF2FE174E0FF1F5820A0E3C7
S11333E008309FE50000E0E3002083E51EFF2FE1A5
S11333F074E0FF1F5820A0E308309FE50000E0E3DD
S1133400002083E51EFF2FE174E0FF1F5820A0E396
S113341008309FE50000A0E3002083E51EFF2FE1B4
S113342074E0FF1F5820A0E308309FE50000E0E3AC
S1133430002083E51EFF2FE174E0FF1F5820A0E366
S113344008309FE50000E0E3002083E51EFF2FE144
S113345074E0FF1F5820A0E308309FE50000E0E37C
S1133460002083E51EFF2FE174E0FF1F1C209FE571
S1133470003092E518109FE5000053E30130A001ED
S1133480000083E0000082E50300A0E11EFF2FE1BD
S11334906CE0FF1F78E4FF1F5820A0E308309FE58D
S11334A00000E0E3002083E51EFF2FE174E0FF1F2E
S11334B0FEFFFFEA696E7374616E6365203C204110
S11334C0525241595F53495A4528735F6770696F77
S11334D042617365732900006465702F66736C5FC5
S11334E06770696F2E630000696E7374616E636543
S11334F0203C2041525241595F53495A4528735F39
S1133500666770696F42617365732900636F6E66E5
S1133510696700004750494F5F476574496E73748B
S1133520616E636500000000464750494F5F476580
S113353074496E7374616E63650000004750494FAF
S11335405F50696E496E6974000000004647504937
S11335504F5F50696E496E69740000002C206675D7
S11335606E6374696F6E3A200000000061737365C6
S11335707274696F6E2022257322206661696C65FE
S1133580643A2066696C6520222573222C206C69BC
S11335906E65202564257325730A000004E0FF1F6F
S11335A0232D302B20000000686C4C0065666745B5
S11335B046470000303132333435363738394142EA
S11335C04344454600000000303132333435363749
S11335D03839616263646566000000000000000021
S11335E000000000000000000000000000000000D7
S11335F000000000000000000000000000000000C7
S113360000000000000000000000000000000000B6
S113361000000000000000000000000000000000A6
S11336200000000000000000000000000000000096
S10F36300000000000000000000000008A
S10F363C0DC0A0E1F8DF2DE904B04CE261
S10F36480DC0A0E1F8DF2DE904B04CE255
S113365404E0FF1F000000001C360000FC350000DD
S1133664DC35000000000000000000000000000041
S11336740000000000000000000000000000000042
S11336840000000000000000000000000000000032
S11336940000000000000000000000000000000022
S11336A40000000000000000000000000000000012
S10736B4000000000E
S9030410E8
